:040000006F003074E9
:100004000000000000000000600100006401000026
:1000140000000000EC0E00000000000000000000E2
:10002400EE0E0000F00E00000000000000000000D2
:10003400F20E000000000000660100000000000055
:10004400F60E0000F80E0000FA0E0000000000009A
:10005400FC0E0000FE0E0000000F0000020F000066
:10006400040F0000060F0000080F00000A0F000034
:100074000C0F00000E0F0000100F0000120F000004
:10008400140F0000160F0000180F00001A0F0000D4
:100094001C0F00001E0F0000200F0000220F0000A4
:1000A400240F0000260F0000280F00002A0F000074
:1000B4002C0F000058070000300F0000320F000022
:1000C400340F0000360F0000380F00003A0F000014
:1000D4003C0F00003E0F0000400F00000000000035
:1000E400000000000000000000000000000000000C
:0C00F40000000000000000000000000000
:10010000397101436EC619A0397141536AC866CA74
:1001100062CC5ECE19A0397101535AD056D252D456
:100120004ED64AD826DA22DC06DE330161408282CE
:1001300041114AC026C222C406C68282B24D410184
:10014000024D924C224CB24B4101024B924A224A40
:10015000B2494101024992442244B24041018280A5
:100160007300203001A00968028801A038313C21C9
:100170002207BA97139787001C310821BA97A20764
:100180003E9582803737024083576742C207C1835A
:10019000F19B93E727002313F7428357674293C7E6
:1001A00007042313F7429387C184982325C39386BA
:1001B000818498421307070498C283A6418463157B
:1001C000D700238007008280938641839C42138757
:1001D0004183938707049CC213060004814714439C
:1001E000BE968C2283A64180BE968CA28507E3989A
:1001F000C7FE373702402312F74283576742C207D0
:10020000C183F19BC207C1832313F7428280EFF2BF
:100210003FF285450545EF10C00A85450565EF109D
:1002200060080DBFB7370240130700FC2386E74084
:100230001387818523A8E7401387818D23AAE74090
:1002400009472391E7422393E7428280EFF25FEE72
:1002500041118545414502C202C402C6EF10600645
:10026000B70703003EC24C009307800437150140D6
:100270003EC6EF00106AB7070140984F13670708A2
:1002800098CF984F1367C70098CF984F719B98CF1E
:100290004101C9B5EFF2DFE91DCDB73402407D372A
:1002A00023800440413793079002A38104402380B8
:1002B000F440FD572383F440930710F8A380F440E3
:1002C0009D472381F4400967B7E700E013840440A9
:1002D00023A2E71041B59947373402402300F44088
:1002E0002945EF104002B7E700E02300044009670A
:1002F00023A2E718C5B7EFF21FE241119149373742
:1003000002404EC68357674237040020C207C183AC
:10031000CD9B93E787002313F7428357674213046B
:10032000040193C707082313F74203C78180138989
:1003300081802DE781471306000418403E970C2367
:10034000138701831443BE968CA28507E397C7FEEB
:100350001C43938707041CC3138701841C439387A2
:1003600007041CC303A7C183639DE7003715014041
:10037000854793050004130505802300F900EF006D
:1003800030723737024083576742C207C183CD9B23
:10039000C207C1832313F742410145BB3715014012
:1003A0009305000413050580EF00306E0440994763
:1003B0008020630BF42C63EF870205496301241747
:1003C00045C48947630EF41C630034273737024065
:1003D000835767423715014093050004C207C18364
:1003E000CD9BC207C1832313F74213050580EF009D
:1003F000306B5DB7A1476302F432636DF42A930753
:100400000002630AF43293071002E311F4FCEF00D8
:10041000F03B13051003EF00F03D372400081305EF
:1004200004C0EF0030412AC6EF00F03BEF0010445B
:1004300013051003B7240008EF00D03B130404C0D9
:10044000EF009045138904D0228581451104EF0007
:100450003047E31B24FF138504C0EF001049EF0071
:10046000D04283A7418075AA856601479386464599
:1004700093050002B387E6001386418088231C425F
:10048000BA9788A30507E317B7FE1C42A146A384C9
:10049000E702130700FDA386E70241472380070216
:1004A000A380070223810702A381D70223820702C8
:1004B000A382070223830702A38307022384070280
:1004C00023850702A38507022386070223870702E5
:1004D000A387070223880702A388E702238907026C
:1004E000A3890702238A0702A38AE702238B070254
:1004F000A38B0702238C0702A38CE702238D07023C
:10050000A38D0702238E0702A38EE702238F070223
:10051000A38F07023737024093070004CDA213854B
:100520001400A931B7E7FFF7AA9731672A899384A6
:1005300041806376F7009C4023800700E1BF4EC6F0
:10054000EF00D02813051003EF00D02A4A85EF00F2
:10055000702E2AC613051003EF00D0291305094099
:10056000EF00502D2AC613051003EF00B028056ACE
:1005700013050A804A95EF00F02B2AC613051003D5
:10058000EF00502713050AC04A95EF00B02A2AC68B
:10059000EF007025B247E39037FB9C4080A39DBFDE
:1005A000138554004EC6D9368567AA896305F500C0
:1005B00083A7418051B7138514004D3EB7E7FFF77D
:1005C000AA9731672A84E365F7FEEF00302A130506
:1005D0001003B7040020EF00F02193848416A29941
:1005E000130A0010EF00502B0149B38724018C43FC
:1005F000330589001109EF00B02CE31849FF22856B
:1006000013040410EF00702E93840410E39C89FC03
:10061000EF00B027B2469387418011479C43E39D8A
:10062000E6F0054798A3FDB51385140081362A84AA
:1006300013855400253E938741809443138741805E
:100640002380260185666304D5009C43F5B5B7E792
:10065000FFF7A297B16663F5F6001C4323800700FD
:10066000B70600208147938686160565B385D700B7
:100670003306F4008C2110226384C5001C436DBD39
:100680008507E395A7FE79B513851400C534056782
:100690009387C183636EA70088C323A00184B70733
:1006A00000209387871623A8F1822300090039BB15
:1006B00098C3E5B713851400553C056793874184BB
:1006C000636BA70488C323A40184B7070020938722
:1006D000871623AAF18285462386D1841387418316
:1006E0008147130600041443BE968C2283A64180E2
:1006F000BE968CA28507E398C7FE373702402312C7
:10070000F74283576742C207C183F19BC207C18387
:100710002313F74265B998C37DB70145A53E13057C
:100720004006EF00B041B707EFBE37E700E0938720
:1007300007083CC761B981473725000893060004C4
:100740003307F500034607C003A741803E9710A377
:100750008507E397D7FE55B7011122CE3734024003
:1007600026CC4ACA4EC852C656C45AC213040440C4
:1007700078207C301377F70F93762700638D065C23
:1007800093F7F70F13F70703930600026303D702EB
:10079000930600036307D7100DE713F7F703630110
:1007A000070E8546631FD70093F7070499CBA13640
:1007B00009A893F7F703638EE70013071002638E0F
:1007C000E70AB737024009472383E740938707408A
:1007D00061AB938781829E2393848182C207C18308
:1007E00081E7930700083EB09387A182982313778F
:1007F000070639CF9C231307000493F70706E392FB
:10080000E7FC9E201307F003130400046365F70060
:100810008220420441801389818383290900228632
:10082000CE8513858185EF00D0349E20A2992320A8
:100830003901818FC207C1839EA0B7370240239040
:10084000874203D72742134707042391E74295BF06
:1008500083C74182154793F7F70F6384E700194771
:1008600079BF373702408347374083C6018293F709
:100870000708D58FA301F740A9B7EFF0BF9091B754
:10088000184493F7070495DF83C7A18283D7818239
:10089000C207C1839DF723100402930700043EB0F2
:1008A0000DB7930720043EB0930780083EB013872E
:1008B00081851C239386A18210339CA26E2393878B
:1008C000418290A3138681820EA22E231386C182B9
:1008D0000EA252239385618292A190221384818279
:1008E0001389A18213760606938681859384C1823B
:1008F000138761824DC203470900930600041377F2
:100900000706631BD7269C23130740036316F726AD
:100910009E211D476312F7268565162013874549DA
:1009200023ACE1821307E00993898183938A4549C7
:100930006373D7001AA01E201307F003930400046A
:100940006365F7000620C204C18026869385454969
:1009500013858185D694EF00D02123A09900834789
:1009600009001A20E207E18763D7073C93070004D8
:1009700063E5E7001E20C207C1831A201D8F4207CE
:1009800041831AA0373702402310F742930700042F
:100990002311F7423DB59C232D4693F7F70F636D66
:1009A000F61C05668A0713064642B2979C43828767
:1009B000B7190140138509808545EF00100D138597
:1009C00009808545EF00D00D9E208946A18393893B
:1009D00081836384D70A63ECF60205476387E704E3
:1009E000B7140140138504808545EF00100A138574
:1009F00004808545EF00D00A138504808545EF000B
:100A0000D008854513850480EF00900971A80D4733
:100A10006381E7083D47E395E7FC85679387475D7A
:100A200023A0F9009307100201A885671387475593
:100A300083C7475523A0E90081441A2063F3E700E8
:100A40001EA01E201307F003930A00046367F7003B
:100A5000835A0400C20A93DA0A0103AB09005686DE
:100A600013858185DA85DA9AEF00B01023A0590149
:100A70009307F00FE395F4EE01A2056713074753C0
:100A80003C3323A0E9003823A207BA97C207C183E9
:100A900065B79A2005461377F70F6302C70209CBA3
:100AA0006307D702630DF70281479304F00F71B714
:100AB0001387C18123A0E90083C7C181B5BF8567C2
:100AC0001387875623A0E90083C78756B5B7856784
:100AD0001387075A23A0E90083C7075AB1BF856768
:100AE0001387C75B23A0E90083C7C75BB1B79E200C
:100AF00093F7F70F2380F1829DB583C711829CA2E3
:100B00001A208547E3FDE7E41EA091BD9E2093F7E0
:100B1000F70FA380F18205472381E18289B58347DE
:100B20000900FD8B91EF9E20054793F7F70FE3989F
:100B3000E7E29387318298231377E70F98A305B5EF
:100B4000834609008947FD8A6398F6029E2093F741
:100B5000F70F9DE31E23154693F7F70F6389C7042C
:100B60003737024013070740636DF60085466388F8
:100B7000D7028D466388D702B73702401307300487
:100B8000E9B1130640086382C70213066008638553
:100B9000C70213062008E391C7FE36B7C9B3231373
:100BA000070275BB231707025DBB36BB4DBBB737CA
:100BB00002402393074665B32315D7064DB38347F9
:100BC0000900FD8B9DE39E20054793F7F70FE39502
:100BD000E7FA856783C7B75393F70702D1DF938797
:100BE000318298231367170091BF83470900894614
:100BF000FD8BE393D7F89E2093F7F70FB5FF1A23E9
:100C00009546B73702401377F70F630CD7049387E5
:100C1000074063EDE6008546630BD7028D46E31D72
:100C2000D7F4FA371367C700FAB715BB9306400825
:100C30006304D70293066008630CD702930620086A
:100C4000E31CD7F2BA3713673700BAB709BBFA33D8
:100C50001367C700FAB321B3BA3B13673700BABBB7
:100C6000FDB903D767461367C7002393E746C5B9A5
:100C700003D7A706136737002395E706CDB1238076
:100C80000600BDBD8347090023900600FD8B91EF50
:100C900083C731828144858B99C389479CA21A20DE
:100CA0008947E3F7E7DC1EA0E1B383470900094663
:100CB0009304F00FFD8BE394C7FE1E23154693F7B4
:100CC000F70F6380C7063737024013070740636E8C
:100CD000F6000546638BC7020D46E392C7FC7E37DC
:100CE000B18B3147639BE7023DA013064008638840
:100CF000C70213066008638DC70213062008E3903D
:100D0000C7FA3E378D8B0D47F1BF7E3331478144A3
:100D1000B18BE396E7F885479CA2814449B73E3BF7
:100D2000D5B7B73702409387074083D767064DBFD3
:100D30008357A706C1BF4207B73702404183938755
:100D4000074019E72390070213070004BAB395BCC4
:100D500013070008E5BF937717008DC3A3010400B4
:100D6000EFF04FCC85477CA07244E2445249C2491F
:100D7000324AA24A124B0561730020309377470034
:100D800085C7583093873182118B11CB9823136715
:100D9000270098A39C23B7370240114735B4982306
:100DA0001377D70F98A3C5BF78A07DBFEFF2AFB67A
:100DB0004111F528352337570020930607C023A893
:100DC000D184832607C0372712141307679813842A
:100DD0000185638BE60485451145E521B71901407E
:100DE0008564930780044C0093840480054913852F
:100DF00009803EC626C24AC4292E130520033D2B76
:100E0000A68513850980AD2963102503B72700083F
:100E10009843FD57630AF700B7E700E0116723A086
:100E2000E71023A0E72001A0B7570020138707C0D1
:100E300018C023A007C0EFF08FBD0545EFF08FC5A8
:100E400085451145BD29930700043EC23714014072
:100E500085473EC44C00C147130504C03EC6552C0F
:100E60009305000413050480252901A0B71702404B
:100E70009843B70600F99386F6F51367170098C3F1
:100E8000D84313670705D8C3D843758FD8C337270E
:100E900002401443F19A14C3144393E6260014C38A
:100EA000D8431377F7F0D8C3D843D8C38280B71696
:100EB0000240DC42918313F7F700B70700209387C5
:100EC0000700BA979C23D4423777DC0293F7F70FD9
:100ED000130707C093F606083356F70099E2335616
:100EE000F70223A6C180828001A001A001A001A079
:100EF00001A001A001A001A001A001A001A001A0EA
:100F000001A001A001A001A001A001A001A001A0D9
:100F100001A001A001A001A001A001A001A001A0C9
:100F200001A001A001A001A001A001A001A001A0B9
:100F300001A001A001A001A001A001A001A001A0A9
:100F400001A0970100209381E18C1741002013013B
:100F500061CB170500001305656A97F5FF1F9385A0
:100F6000650A1386018263FAC5008322050023A067
:100F7000550011059105E3EAC5FE13850182971519
:100F800000209385A51E6377B50023200500110579
:100F9000E36DB5FEFD42739002BC8D4273904280BA
:100FA0009302800873A0023097F2FFFF9382C2057C
:100FB00093E2320073905230EFF05FEB9702000043
:100FC000938202DF7390123473002030B7076745B5
:100FD00037270240938737125CC3B797EFCD9387CB
:100FE000B79A5CC38280372702401C4B93E70708FF
:100FF0001CCB8280B7270240C8C7828037270240B7
:101000005C470545858B91E74847418913351500B5
:101010000D058280EFF2CF912A848544C53763188D
:10102000950019E0154529A0D13F7D14CDBF7DD88D
:101030006FF04F92EFF2CF8FAA8437050B00D93FA4
:1010400091476313F502372402401C4837050B0013
:1010500093E727001CC844C81C4893E707041CC832
:10106000553F1C48F59B1CC86FF0CF8EB7066745EF
:10107000B7270240938636123797EFCDD4C31307B4
:10108000B79AD8C3D4D3D8D38280372702401C4B19
:10109000A166D58F1CCB8280B7270240984BC166D2
:1010A000558F98CB984BB7060800558F98CBD847EB
:1010B000058B75FF984BC176FD16758F98CB828096
:1010C000B7270240984BC166558F98CB0CC1984BFF
:1010D000B7060400558F98CBD847058B75FF984B02
:1010E000C176FD16758F98CB8280B7270240984B4A
:1010F000C166558F98CBC8CB984B1367070498CB24
:10110000D847058B75FF984BC176FD16758F98CB28
:1011100082809845937707011378F70081C7DC41F7
:101120003368F8009441814713F6F60F39C21C4129
:101130000146854E3D4F930F800293028004214E5D
:10114000B398CE00B3F516016391B80213132600CD
:10115000B3156F0093C5F5FFED8F33136800B367C8
:10116000F3006317F70D232A15010506E31AC6FDE0
:101170001CC14166130606F0758E3DC2371601404C
:1011800093050680631BB50A83A70181A145854E9F
:101190003D4F930F800293028004414E3393BE0073
:1011A00033F666006312C302139625000116B318C6
:1011B000CF0093C8F8FFB3F7F8003316C800D18FFB
:1011C0006319F709232A65008505E399C5FD3716DC
:1011D00001405CC1930506806312B50823A8F18025
:1011E000C16763E6F604504D8147054E3D4F930FAE
:1011F000800293028004A14E93850701B315BE00BF
:10120000B3F8B600639115039398270033131F01B9
:101210001343F3FF3376C300B318180133E6C80055
:10122000631AF7054CC98507E398D7FD50CD828036
:10123000E31D57F2232815010DBF930506C0631562
:10124000B50083A7418199B7E312C5F483A78181D3
:1012500035BFE31B57F623286500BDB7930506C0CD
:101260006315B50023AAF180A5BFE31BC5F623AC27
:10127000F180BDB7E31957FAB315FE000CD165B77D
:1012800008456D8D3335A000828093970501C18399
:1012900091C30CC9C16763E4F500C1810CD18280A0
:1012A0004CC9828099C5371702405C4B5D8D48CB95
:1012B0008280B7170240D84B1345F5FF798DC8CB14
:1012C000828099C5371702401C4F5D8D08CF828000
:1012D000B7170240984F1345F5FF798D88CF82806C
:1012E00083A7C18037177A0013070720B3D7E70217
:1012F00093F7F70F238BF1841307803EB387E70240
:10130000239AF1848280B7F700E0D8438146799B25
:10131000D8C303C761853306A70290CBD4CB9843CB
:101320001367070198C398431367170298C3D843FC
:10133000058B75DF9843799B98C38280B7F700E0EF
:10134000D8438146799BD8C303D741853306A7028A
:1013500090CBD4CB98431367070198C39843136786
:10136000170298C3D843058B75DF9843799B98C3C0
:101370008280B3C7A5008D8B3307C50081E78D47F9
:1013800063EDC700AA87637EE5089421850785057C
:10139000A38FD7FEE3EBE7FE828093763500AA8722
:1013A00089CA942185078505A38FD7FE93F6370058
:1013B000C5BF9376C7FF138606FE63F0C70683A3F7
:1013C000050083A2450083AF850003AFC50083AE4F
:1013D000050103AE450103A3850183A8C5019385DB
:1013E000450223A0770003A8C5FF23A2570023A42A
:1013F000F70123A6E70123A8D70123AAC70123AC3D
:10140000670023AE17019387470223AE07FF75B726
:1014100090419107910523AEC7FEE3EBD7FEE3E6CB
:10142000E7F68280840C00001E0B0000780B0000A1
:10143000BE0B0000780B0000EE0A0000B0090000AF
:10144000780B0000FA0A00000C0B00007E0C000074
:101450005E09000041726475696E6F205830333345
:101460002032333038313900000000000000000025
:10147000000000000000000000000000000000006C
:10148000000000000000000000000000000000005C
:10149000000000000A000000000003069E00140087
:1014A000030057494E555342000000000000000061
:1014B0000000800004000100280044006500760060
:1014C00069006300650049006E00740065007200E9
:1014D0006600610063006500470055004900440054
:1014E00000004E007B00650063006300650066003D
:1014F0006600330035002D00310034003600330023
:101500002D0034006600660033002D00610063008A
:10151000640039002D0038006600390039003200BF
:1015200064003000390061006300640064007D00E5
:101530000000000009022000010100C0FA090400B7
:101540000002FFFFFF0007058102400000070501C0
:101550000240000012010102000000404843120056
:10156000020001020301000036034E0067006F0015
:101570002000480075006E006700200043007500E1
:101580006F006E006700200045006C00650063007E
:10159000740072006F006E00690063007300000049
:1015A0001A03410072006400750069006E006F004C
:1015B00020005800300033003300000016033000D4
:1015C000390038003900360039003600390037005C
:1015D00031000000050F2100011C100500DF60DD57
:1015E000D88945C74C9CD2659D9E648A9F000003A4
:0815F000069E0034000000001B
:1015F800010203040506070801020304050607089B
:10160800E80000202801002001000000006CDC0236
:10161800444444444444444444444444040309047E
:00000001FF
