:040000006F003073EA
:100004000000000000000000600100006401000026
:1000140000000000DC0E00000000000000000000F2
:10002400DE0E0000E00E00000000000000000000F2
:10003400E20E000000000000660100000000000065
:10004400E60E0000E80E0000EA0E000000000000CA
:10005400EC0E0000EE0E0000F00E0000F20E0000A8
:10006400F40E0000F60E0000F80E0000FA0E000078
:10007400FC0E0000FE0E0000000F0000020F000046
:10008400040F0000060F0000080F00000A0F000014
:100094000C0F00000E0F0000100F0000120F0000E4
:1000A400140F0000160F0000180F00001A0F0000B4
:1000B4001C0F000052070000200F0000220F000058
:1000C400240F0000260F0000280F00002A0F000054
:1000D4002C0F00002E0F0000300F00000000000065
:1000E400000000000000000000000000000000000C
:0C00F40000000000000000000000000000
:10010000397101436EC619A0397141536AC866CA74
:1001100062CC5ECE19A0397101535AD056D252D456
:100120004ED64AD826DA22DC06DE330161408282CE
:1001300041114AC026C222C406C68282B24D410184
:10014000024D924C224CB24B4101024B924A224A40
:10015000B2494101024992442244B24041018280A5
:100160007300203001A00968028801A038313C21C9
:100170002207BA97139787001C310821BA97A20764
:100180003E9582803737024083576742C207C1835A
:10019000F19B93E727002313F7428357674293C7E6
:1001A00007042313F7429387C184982325C39386BA
:1001B000818498421307070498C283A6418463157B
:1001C000D700238007008280938641839C42138757
:1001D0004183938707049CC213060004814714439C
:1001E000BE968C2283A64180BE968CA28507E3989A
:1001F000C7FE373702402312F74283576742C207D0
:10020000C183F19BC207C1832313F7428280EFF2BF
:100210003FF285450545EF10C00985450565EF109E
:1002200060070DBFB7370240130700FC2386E74085
:100230001387818523A8E7401387818D23AAE74090
:1002400009472391E7422393E7428280EFF25FEE72
:1002500041118545414502C202C402C6EF10600546
:10026000B70703003EC24C009307800437150140D6
:100270003EC6EF001069B7070140984F13670708A3
:1002800098CF984F1367C70098CF984F719B98CF1E
:100290004101C9B5EFF2DFE91DCDB73402407D372A
:1002A00023800440413793079002A38104402380B8
:1002B000F440FD572383F440930710F8A380F440E3
:1002C0009D472381F4400967B7E700E013840440A9
:1002D00023A2E71041B59947373402402300F44088
:1002E0002945EF104001B7E700E02300044009670B
:1002F00023A2E718C5B7EFF21FE241119149373742
:1003000002404EC68357674237040020C207C183AC
:10031000CD9B93E787002313F7428357674213046B
:10032000040193C707082313F74203C78180138989
:10033000818025E781471306000418403E970C236F
:10034000138701831443BE968CA28507E397C7FEEB
:100350001C43938707041CC3138701841C439387A2
:1003600007041CC303A7C183639CE7003715014042
:1003700085478545130505802300F900EF0050717E
:100380003737024083576742C207C183CD9BC207FC
:10039000C1832313F74241014DBB37150140854509
:1003A00013050580EF00706D044099478020630AB3
:1003B000F42C63EE87020549630024175DC089476A
:1003C000630DF41C630F34253737024083576742AF
:1003D000371501408545C207C183CD9BC207C18344
:1003E0002313F74213050580EF00906A6DB7A1470C
:1003F0006302F432636DF42A93070002630AF43255
:1004000093071002E312F4FCEF00503B13051003B6
:10041000EF00503D37240008130504C0EF00904062
:100420002AC6EF00503BEF00704313051003B724BA
:100430000008EF00303B130404C0EF00F0441389C0
:1004400004D0228581451104EF009046E31B24FF70
:10045000138504C0EF007048EF00304283A741804D
:1004600075AA856601479386464493050002B387C3
:10047000E6001386418088231C42BA9788A30507AB
:10048000E317B7FE1C42A146A384E702130700FD51
:10049000A386E702414723800702A3800702238146
:1004A0000702A381D70223820702A38207022383C4
:1004B0000702A38307022384070223850702A3857B
:1004C00007022386070223870702A38707022388E0
:1004D0000702A388E70223890702A3890702238A68
:1004E0000702A38AE702238B0702A38B0702238C50
:1004F0000702A38CE702238D0702A38D0702238E38
:100500000702A38EE702238F0702A38F0702373764
:10051000024093070004CDA2138514008139B7E788
:10052000FFF7AA9731672A89938441806376F700A1
:100530009C4023800700E1BF4EC6EF003028130522
:100540001003EF00302A4A85EF00D02D2AC613058C
:100550001003EF00302913050940EF00B02C2AC624
:1005600013051003EF001028056A13050A804A9549
:10057000EF00502B2AC613051003EF00B026130519
:100580000AC04A95EF00102A2AC6EF00D024B247CD
:10059000E39037FB9C4080A39DBF138554004EC65B
:1005A000F1368567AA896305F50083A7418051B7B5
:1005B00013851400653EB7E7FFF7AA9731672A84D1
:1005C000E365F7FEEF00902913051003B704002040
:1005D000EF00502193848416A299130A0010EF00B3
:1005E000B02A0149B38724018C43330589001109DE
:1005F000EF00102CE31849FF228513040410EF00CC
:10060000D02D93840410E39C89FCEF001027B246A0
:100610009387418011479C43E39DE6F0054798A3EB
:10062000FDB51385140099362A84138554003D3E88
:1006300093874180944313874180238026018566F8
:100640006304D5009C43F5B5B7E7FFF7A297B16601
:1006500063F5F6001C4323800700B706002081479E
:10066000938686160565B385D7003306F4008C2182
:1006700010226384C5001C436DBD8507E395A7FE6A
:1006800079B513851400DD3405679387C183636EE4
:10069000A70088C323A00184B7070020938787168B
:1006A00023A8F1822300090005B398C3E5B7138599
:1006B00014006D3C056793874184636BA70488C36E
:1006C00023A40184B70700209387871623AAF18209
:1006D00085462386D184138741838147130600040E
:1006E0001443BE968C2283A64180BE968CA28507B9
:1006F000E398C7FE373702402312F7428357674219
:10070000C207C183F19BC207C1832313F7426DB9AE
:1007100098C37DB70145BD3E13054006EF0010416B
:10072000B707EFBE37E700E0938707083CC769B912
:10073000814737250008930600043307F500034678
:1007400007C003A741803E9710A38507E397D7FE14
:1007500055B7011122CE3734024026CC4ACA4EC8C2
:1007600052C656C45AC21304044078207C30137712
:10077000F70F93762700638D065C93F7F70F13F757
:100780000703930600026303D7029306000363077F
:10079000D7100DE713F7F7036301070E8546631FB4
:1007A000D70093F7070499CBB93609A893F7F70355
:1007B000638EE70013071002638EE70AB737024023
:1007C00009472383E7409387074061AB9387818282
:1007D0009E2393848182C207C18381E79307000827
:1007E0003EB09387A18298231377070639CF9C23C5
:1007F0001307000493F70706E392E7FC9E20130714
:10080000F003130400046365F70082204204418072
:1008100013898183832909002286CE8513858185EA
:10082000EF0030349E20A29923203901818FC20726
:10083000C1839EA0B73702402390874203D7274247
:10084000134707042391E74295BF83C741821547A9
:1008500093F7F70F6384E700194779BF37370240F2
:100860008347374083C6018293F70708D58FA301DA
:10087000F740A9B7EFF01F9191B7184493F7070419
:1008800095DF83C7A18283D78182C207C1839DF789
:1008900023100402930700043EB00DB79307200411
:1008A0003EB0930780083EB0138781851C23938652
:1008B000A18210339CA26E239387418290A313865A
:1008C00081820EA22E231386C1820EA2522393850B
:1008D000618292A19022138481821389A18213766E
:1008E0000606938681859384C182138761824DC2F7
:1008F000034709009306000413770706631BD726F6
:100900009C23130740036316F7269E211D4763129D
:10091000F726856516201387454823ACE182130727
:10092000E00993898183938A45486373D7001AA0AD
:100930001E201307F003930400046365F7000620EC
:10094000C204C18026869385454813858185D69447
:10095000EF00302123A09900834709001A20E20705
:10096000E18763D7073C9307000463E5E7001E2097
:10097000C207C1831A201D8F420741831AA037374F
:1009800002402310F742930700042311F7423DB5BC
:100990009C232D4693F7F70F636DF61C05668A07B7
:1009A00013064641B2979C438287B71901401385CD
:1009B00009808545EF00700C138509808545EF009F
:1009C000300D9E208946A183938981836384D70A51
:1009D00063ECF60205476387E704B714014013850B
:1009E00004808545EF007009138504808545EF007C
:1009F000300A138504808545EF003008854513854E
:100A00000480EF00F00871A80D476381E7083D47B7
:100A1000E395E7FC85679387475C23A0F90093077C
:100A2000100201A885671387475483C7475423A042
:100A3000E90081441A2063F3E7001EA01E2013077B
:100A4000F003930A00046367F700835A0400C20AA4
:100A500093DA0A0103AB0900568613858185DA858E
:100A6000DA9AEF00101023A059019307F00FE395D5
:100A7000F4EE01A20567130747523C3323A0E900B7
:100A80003823A207BA97C207C18365B79A200546E3
:100A90001377F70F6302C70209CB6307D702630D11
:100AA000F70281479304F00F71B71387C18123A028
:100AB000E90083C7C181B5BF85671387875523A028
:100AC000E90083C78755B5B785671387075923A002
:100AD000E90083C70759B1BF85671387C75A23A0A9
:100AE000E90083C7C75AB1B79E2093F7F70F238059
:100AF000F1829DB583C711829CA21A208547E3FD30
:100B0000E7E41EA091BD9E2093F7F70FA380F1822A
:100B100005472381E18289B583470900FD8B91EF69
:100B20009E20054793F7F70FE398E7E2938731821A
:100B300098231377E70F98A305B5834609008947E3
:100B4000FD8A6398F6029E2093F7F70F9DE31E231C
:100B5000154693F7F70F6389C70437370240130729
:100B60000740636DF60085466388D7028D4663882B
:100B7000D702B737024013073004E9B11306400823
:100B80006382C702130660086385C7021306200844
:100B9000E391C7FE36B7C9B32313070275BB23170A
:100BA00007025DBB36BB4DBBB737024023930746F8
:100BB00065B32315D7064DB383470900FD8B9DE32D
:100BC0009E20054793F7F70FE395E7FA856783C7FC
:100BD000B75293F70702D1DF9387318298231367C7
:100BE000170091BF834709008946FD8BE393D7F82F
:100BF0009E2093F7F70FB5FF1A239546B7370240AB
:100C00001377F70F630CD7049387074063EDE60073
:100C10008546630BD7028D46E31DD7F4FA37136779
:100C2000C700FAB715BB930640086304D7029306C2
:100C30006008630CD70293062008E31CD7F2BA378A
:100C400013673700BAB709BBFA331367C700FAB3A3
:100C500021B3BA3B13673700BABBFDB903D7674668
:100C60001367C7002393E746C5B903D7A7061367E1
:100C700037002395E706CDB123800600BDBD83472D
:100C8000090023900600FD8B91EF83C731828144D8
:100C9000858B99C389479CA21A208947E3F7E7DC33
:100CA0001EA0E1B38347090009469304F00FFD8BB2
:100CB000E394C7FE1E23154693F7F70F6380C7061C
:100CC0003737024013070740636EF6000546638B13
:100CD000C7020D46E392C7FC7E37B18B3147639B59
:100CE000E7023DA0130640086388C70213066008A8
:100CF000638DC70213062008E390C7FA3E378D8B39
:100D00000D47F1BF7E3331478144B18BE396E7F85D
:100D100085479CA2814449B73E3BD5B7B7370240CF
:100D20009387074083D767064DBF8357A706C1BF88
:100D30004207B737024041839387074019E7239062
:100D4000070213070004BAB395BC13070008E5BFF8
:100D5000937717008DC3A3010400EFF0AFCC854754
:100D60007CA07244E2445249C249324AA24A124B20
:100D70000561730020309377470085C7583093870B
:100D80003182118B11CB98231367270098A39C23E2
:100D9000B7370240114735B498231377D70F98A37C
:100DA000C5BF78A07DBFEFF2AFB84111CD280D23AC
:100DB00037570020930607C023A8D184832607C095
:100DC0003727121413076798138401856389E60493
:100DD00085451145F9298947371901404C003EC224
:100DE000854493078004130509803EC626C4112E4E
:100DF00013052003252B89451305098095296310C8
:100E00009502B72700089843FD57630AF700B7E734
:100E100000E0116723A0E71023A0E72001A0B75747
:100E20000020138707C018C023A007C0EFF02FBE13
:100E30000545EFF02FC685451145A529854737148F
:100E400001403EC23EC44C00C147130504C03EC62B
:100E50004D2C854513050480252901A0B7170240B4
:100E60009843B70600F99386F6F51367170098C301
:100E7000D84313670705D8C3D843758FD8C337271E
:100E800002401443F19A14C3144393E6260014C39A
:100E9000D8431377F7F0D8C3D843D8C38280B716A6
:100EA0000240DC42918313F7F700B70700209387D5
:100EB0000700BA979C23D4423777DC0293F7F70FE9
:100EC000130707C093F606083356F70099E2335626
:100ED000F70223A6C180828001A001A001A001A089
:100EE00001A001A001A001A001A001A001A001A0FA
:100EF00001A001A001A001A001A001A001A001A0EA
:100F000001A001A001A001A001A001A001A001A0D9
:100F100001A001A001A001A001A001A001A001A0C9
:100F200001A001A001A001A001A001A001A001A0B9
:100F300001A0970100209381E18D1741002013014A
:100F400061CC170500001305656A97F5FF1F9385AF
:100F5000650B1386018263FAC5008322050023A076
:100F6000550011059105E3EAC5FE13850182971529
:100F700000209385A51F6377B50023200500110588
:100F8000E36DB5FEFD42739002BC8D4273904280CA
:100F90009302800873A0023097F2FFFF9382C2068B
:100FA00093E2320073905230EFF05FEB9702000053
:100FB0009382A2DF7390123473002030B707674525
:100FC00037270240938737125CC3B797EFCD9387DB
:100FD000B79A5CC38280372702401C4B93E707080F
:100FE0001CCB8280B7270240C8C7828037270240C7
:100FF0005C470545858B91E74847418913351500C6
:101000000D058280EFF2CF922A848544C53763189C
:10101000950019E0154529A0D13F7D14CDBF7DD89D
:101020006FF04F93EFF2CF90AA8437050B00D93FB2
:1010300091476313F502372402401C4837050B0023
:1010400093E727001CC844C81C4893E707041CC842
:10105000553F1C48F59B1CC86FF0CF8FB7066745FE
:10106000B7270240938636123797EFCDD4C31307C4
:10107000B79AD8C3D4D3D8D38280372702401C4B29
:10108000A166D58F1CCB8280B7270240984BC166E2
:10109000558F98CB984BB7060800558F98CBD847FB
:1010A000058B75FF984BC176FD16758F98CB8280A6
:1010B000B7270240984BC166558F98CB0CC1984B0F
:1010C000B7060400558F98CBD847058B75FF984B12
:1010D000C176FD16758F98CB8280B7270240984B5A
:1010E000C166558F98CBC8CB984B1367070498CB34
:1010F000D847058B75FF984BC176FD16758F98CB39
:1011000082809845937707011378F70081C7DC4107
:101110003368F8009441814713F6F60F39C21C4139
:101120000146854E3D4F930F800293028004214E6D
:10113000B398CE00B3F516016391B80213132600DD
:10114000B3156F0093C5F5FFED8F33136800B367D8
:10115000F3006317F70D232A15010506E31AC6FDF0
:101160001CC14166130606F0758E3DC2371601405C
:1011700093050680631BB50A83A70181A145854EAF
:101180003D4F930F800293028004414E3393BE0083
:1011900033F666006312C302139625000116B318D6
:1011A000CF0093C8F8FFB3F7F8003316C800D18F0B
:1011B0006319F709232A65008505E399C5FD3716EC
:1011C00001405CC1930506806312B50823A8F18035
:1011D000C16763E6F604504D8147054E3D4F930FBE
:1011E000800293028004A14E93850701B315BE00CF
:1011F000B3F8B600639115039398270033131F01CA
:101200001343F3FF3376C300B318180133E6C80065
:10121000631AF7054CC98507E398D7FD50CD828046
:10122000E31D57F2232815010DBF930506C0631572
:10123000B50083A7418199B7E312C5F483A78181E3
:1012400035BFE31B57F623286500BDB7930506C0DD
:101250006315B50023AAF180A5BFE31BC5F623AC37
:10126000F180BDB7E31957FAB315FE000CD165B78D
:1012700008456D8D3335A000828093970501C183A9
:1012800091C30CC9C16763E4F500C1810CD18280B0
:101290004CC9828099C5371702405C4B5D8D48CBA5
:1012A0008280B7170240D84B1345F5FF798DC8CB24
:1012B000828099C5371702401C4F5D8D08CF828010
:1012C000B7170240984F1345F5FF798D88CF82807C
:1012D00083A7C18037177A0013070720B3D7E70227
:1012E00093F7F70F238BF1841307803EB387E70250
:1012F000239AF1848280B7F700E0D8438146799B36
:10130000D8C303C761853306A70290CBD4CB9843DB
:101310001367070198C398431367170298C3D8430C
:10132000058B75DF9843799B98C38280B7F700E0FF
:10133000D8438146799BD8C303D741853306A7029A
:1013400090CBD4CB98431367070198C39843136796
:10135000170298C3D843058B75DF9843799B98C3D0
:101360008280B3C7A5008D8B3307C50081E78D4709
:1013700063EDC700AA87637EE5089421850785058C
:10138000A38FD7FEE3EBE7FE828093763500AA8732
:1013900089CA942185078505A38FD7FE93F6370068
:1013A000C5BF9376C7FF138606FE63F0C70683A307
:1013B000050083A2450083AF850003AFC50083AE5F
:1013C000050103AE450103A3850183A8C5019385EB
:1013D000450223A0770003A8C5FF23A2570023A43A
:1013E000F70123A6E70123A8D70123AAC70123AC4D
:1013F000670023AE17019387470223AE07FF75B737
:1014000090419107910523AEC7FEE3EBD7FEE3E6DB
:10141000E7F682807E0C0000180B0000720B0000C3
:10142000B80B0000720B0000E80A0000AA090000D7
:10143000720B0000F40A0000060B0000780C00009C
:101440005809000041726475696E6F20583033335B
:101450002032333038313900000000000000000035
:10146000000000000000000000000000000000007C
:10147000000000000000000000000000000000006C
:10148000000000000A000000000003069E00140097
:10149000030057494E555342000000000000000071
:1014A0000000800004000100280044006500760070
:1014B00069006300650049006E00740065007200F9
:1014C0006600610063006500470055004900440064
:1014D00000004E007B00650063006300650066004D
:1014E0006600330035002D00310034003600330033
:1014F0002D0034006600660033002D00610063009B
:10150000640039002D0038006600390039003200CF
:1015100064003000390061006300640064007D00F5
:101520000000000009022000010100C0FA090400C7
:101530000002FFFFFF0007058102400000070501D0
:101540000240000012010102000000404843120066
:10155000020001020301000036034E0067006F0025
:101560002000480075006E006700200043007500F1
:101570006F006E006700200045006C00650063008E
:10158000740072006F006E00690063007300000059
:101590001A03410072006400750069006E006F005C
:1015A00020005800300033003300000016033000E4
:1015B000390038003900360039003600390037006C
:1015C00031000000050F2100011C100500DF60DD67
:1015D000D88945C74C9CD2659D9E648A9F000003B4
:0815E000069E0034000000002B
:1015E80001020304050607080102030405060708AB
:1015F800E80000202801002001000000006CDC0247
:10160800444444444444444444444444040309048E
:00000001FF
